:08000000803102288731FD2F39
:100E74002F0096019701980199019A019B0108009E
:100E8400603031008D008F019101013093002030DA
:100E940092000800803027008E0026308D00C0307C
:100EA4008C0024001F08F33904389F000800013027
:100EB400250090008F0191014D308D008C012E0092
:100EC4009010F03025008E00080087313A278731D2
:100ED40087318C27873187314227873187314C27E7
:100EE40087318731592708007108F3007008F20030
:100EF400F336F20CF336F20C720827008D007008FA
:100F04000339F2000530F235FF3E031D852F72359B
:100F14008C00080020009A0199019601970198011C
:100F240007309500EF309100FF309200FF309300BE
:100F3400FF309400F7303E00CE00FF30C300FF3096
:100F4400D9000730E400FF30B800DA01E501C4013C
:100F5400B901CF01E601BA01C501D001DB013D00B1
:100F64001C08E03913389C000E303E009400080041
:100F7400873167278731F501F6011E30F50000300F
:100F8400F600003076024130031975020318E32F8E
:100F94007608F1007508F0008731762787310D3027
:100FA400F400FC30890BD42FF40BD42F0130F50757
:100FB4000030F63D00307602413003197502031CFF
:100FC400CA2F003076021F3003197502031CBF2F8D
:100FD4007608F1007508F0008731762787310D30E7
:100FE400F400FC30890BF42FF40BF42F0130F502DC
:0C0FF4000030F63BE32F20008731BA2FBD
:020000040001F9
:0A000E00EC3FFF3F9F3FFF3FFF3F25
:00000001FF
